{
  "transactions": [
    {
      "hash": "0xec247637c8eee37ff06b7c6dddf040f60c01349bd3ea259a604014ea52c8c75a",
      "transactionType": "CALL",
      "contractName": null,
      "contractAddress": "0x09ffb9ea86f42e3e3b5e34650311d7e595dfb769",
      "function": "registerNodeValidator(address,uint8,address,bytes)",
      "arguments": [
        "0xd294494Fc62Ba31d364Ec100F6296019cE78Bd1B",
        "1",
        "0xAE5f5f520D0EDb5c2EAD31381f6d1D1Fc2a7C36B",
        "0x98af6117f804e06a5aa885c8879d7abca61067ee34a4abb08d01725ad4b4bdee5c45e9a05894ac695e8f19c305c11888eae4443dbf8ff2896e075900954fcc611b"
      ],
      "transaction": {
        "from": "0xf8bedb0aba14833e95f29e760487c3d34bc4ec64",
        "to": "0x09ffb9ea86f42e3e3b5e34650311d7e595dfb769",
        "gas": "0x126f0",
        "value": "0x0",
        "input": "0xbeed9d5f000000000000000000000000d294494fc62ba31d364ec100f6296019ce78bd1b0000000000000000000000000000000000000000000000000000000000000001000000000000000000000000ae5f5f520d0edb5c2ead31381f6d1d1fc2a7c36b0000000000000000000000000000000000000000000000000000000000000080000000000000000000000000000000000000000000000000000000000000004198af6117f804e06a5aa885c8879d7abca61067ee34a4abb08d01725ad4b4bdee5c45e9a05894ac695e8f19c305c11888eae4443dbf8ff2896e075900954fcc611b00000000000000000000000000000000000000000000000000000000000000",
        "nonce": "0x1f",
        "chainId": "0xaa36a7"
      },
      "additionalContracts": [],
      "isFixedGasLimit": false
    }
  ],
  "receipts": [
    {
      "status": "0x1",
      "cumulativeGasUsed": "0x14ae0fa",
      "logs": [
        {
          "address": "0x09ffb9ea86f42e3e3b5e34650311d7e595dfb769",
          "topics": [
            "0x2366b94a706a0cfc2dca2fe8be9410b6fba2db75e3e9d3f03b3c2fb0b051efad",
            "0x000000000000000000000000d294494fc62ba31d364ec100f6296019ce78bd1b",
            "0x0000000000000000000000000000000000000000000000000000000000000001",
            "0x000000000000000000000000ae5f5f520d0edb5c2ead31381f6d1d1fc2a7c36b"
          ],
          "data": "0x",
          "blockHash": "0xfd64392ce7c3d0c07237bc449a99913cf10aa4af725dd661e85b13491796b704",
          "blockNumber": "0x9db053",
          "blockTimestamp": "0x699f0480",
          "transactionHash": "0xec247637c8eee37ff06b7c6dddf040f60c01349bd3ea259a604014ea52c8c75a",
          "transactionIndex": "0x78",
          "logIndex": "0x12c",
          "removed": false
        }
      ],
      "logsBloom": "0x00000000000000000000000000000000000000000000000000000000001000000000000100000000002000000000400000000000000000000000000000040000000000000000000000000000000020000000000000040000000008400000000000000000000000000001000000000000000000000000000000000000000000000000000000000000000000000000100000000000000000000000000000000000000000000000000000000000000000000000000000000000000000000000000000000000000000000000000000000000000000000000000000000000000040000000000000000000000100000000100001000000000000000000000000000000",
      "type": "0x2",
      "transactionHash": "0xec247637c8eee37ff06b7c6dddf040f60c01349bd3ea259a604014ea52c8c75a",
      "transactionIndex": "0x78",
      "blockHash": "0xfd64392ce7c3d0c07237bc449a99913cf10aa4af725dd661e85b13491796b704",
      "blockNumber": "0x9db053",
      "gasUsed": "0xd588",
      "effectiveGasPrice": "0xf5eff",
      "from": "0xf8bedb0aba14833e95f29e760487c3d34bc4ec64",
      "to": "0x09ffb9ea86f42e3e3b5e34650311d7e595dfb769",
      "contractAddress": null
    }
  ],
  "libraries": [],
  "pending": [],
  "returns": {},
  "timestamp": 1772029057181,
  "chain": 11155111,
  "commit": "cea67a5d"
}